{
  "contractName": "CoinFlip",
  "abi": [
    {
      "anonymous": false,
      "inputs": [
        {
          "indexed": false,
          "internalType": "address",
          "name": "player",
          "type": "address"
        },
        {
          "indexed": false,
          "internalType": "bool",
          "name": "won",
          "type": "bool"
        }
      ],
      "name": "placeBet",
      "type": "event"
    },
    {
      "constant": true,
      "inputs": [],
      "name": "balance",
      "outputs": [
        {
          "internalType": "uint256",
          "name": "",
          "type": "uint256"
        }
      ],
      "payable": false,
      "stateMutability": "view",
      "type": "function"
    },
    {
      "constant": true,
      "inputs": [
        {
          "internalType": "address",
          "name": "",
          "type": "address"
        }
      ],
      "name": "gamblerAccount",
      "outputs": [
        {
          "internalType": "uint256",
          "name": "",
          "type": "uint256"
        }
      ],
      "payable": false,
      "stateMutability": "view",
      "type": "function"
    },
    {
      "constant": false,
      "inputs": [],
      "name": "summery",
      "outputs": [
        {
          "internalType": "uint256",
          "name": "collected",
          "type": "uint256"
        }
      ],
      "payable": false,
      "stateMutability": "nonpayable",
      "type": "function"
    },
    {
      "constant": false,
      "inputs": [],
      "name": "getMyBalance",
      "outputs": [
        {
          "internalType": "uint256",
          "name": "userBalance",
          "type": "uint256"
        }
      ],
      "payable": false,
      "stateMutability": "nonpayable",
      "type": "function"
    },
    {
      "constant": false,
      "inputs": [
        {
          "internalType": "uint256",
          "name": "bet",
          "type": "uint256"
        }
      ],
      "name": "gamble",
      "outputs": [
        {
          "internalType": "bool",
          "name": "won",
          "type": "bool"
        }
      ],
      "payable": true,
      "stateMutability": "payable",
      "type": "function"
    }
  ],
  "bytecode": "0x608060405234801561001057600080fd5b5061051e806100206000396000f3fe60806040526004361061004a5760003560e01c80634c7389091461004f5780639da752c71461007a578063b132a2d8146100a5578063b69ef8a81461010a578063e43869d214610135575b600080fd5b34801561005b57600080fd5b5061006461017b565b6040518082815260200191505060405180910390f35b34801561008657600080fd5b5061008f6101c2565b6040518082815260200191505060405180910390f35b3480156100b157600080fd5b506100f4600480360360208110156100c857600080fd5b81019080803573ffffffffffffffffffffffffffffffffffffffff16906020019092919050505061029a565b6040518082815260200191505060405180910390f35b34801561011657600080fd5b5061011f6102b2565b6040518082815260200191505060405180910390f35b6101616004803603602081101561014b57600080fd5b81019080803590602001909291905050506102b8565b604051808215151515815260200191505060405180910390f35b6000600160003373ffffffffffffffffffffffffffffffffffffffff1673ffffffffffffffffffffffffffffffffffffffff16815260200190815260200160002054905090565b600080600160003373ffffffffffffffffffffffffffffffffffffffff1673ffffffffffffffffffffffffffffffffffffffff1681526020019081526020016000205490506000600160003373ffffffffffffffffffffffffffffffffffffffff1673ffffffffffffffffffffffffffffffffffffffff168152602001908152602001600020819055503373ffffffffffffffffffffffffffffffffffffffff166108fc829081150290604051600060405180830381858888f19350505050158015610292573d6000803e3d6000fd5b508091505090565b60016020528060005260406000206000915090505481565b60005481565b600034670de0b6b3a7640000811015610339576040517f08c379a00000000000000000000000000000000000000000000000000000000081526004018080602001828103825260118152602001807f312045544820697320726571756972657300000000000000000000000000000081525060200191505060405180910390fd5b6000809050600084148061034d5750600184145b6103bf576040517f08c379a000000000000000000000000000000000000000000000000000000000815260040180806020018281038252601f8152602001807f494e56414c4944452c20706c656173652063686f697365202030206f7220310081525060200191505060405180910390fd5b6000600242816103cb57fe5b061480156103d95750600084145b806103fa57506001600242816103eb57fe5b061480156103f95750600184145b5b15610460573460005401600160003373ffffffffffffffffffffffffffffffffffffffff1673ffffffffffffffffffffffffffffffffffffffff168152602001908152602001600020600082825401925050819055506000808190555060019050610470565b3460008082825401925050819055505b7fd7604ca3c5ab0e379fe6e494abfd6990b61e1bd1cdef15ab17563c063926fba43382604051808373ffffffffffffffffffffffffffffffffffffffff1673ffffffffffffffffffffffffffffffffffffffff168152602001821515151581526020019250505060405180910390a1809250505091905056fea265627a7a723158209f1d273febf7d2ae23a632884e56191ee03c553df59a56f9c63158de88d1b2eb64736f6c634300050c0032",
  "source": "pragma solidity 0.5.12;\r\nimport \"./Ownable.sol\";\r\n\r\ncontract CoinFlip {\r\n    uint256 public balance;\r\nmapping(address => uint) public gamblerAccount;\r\n\r\nevent placeBet(address player, bool won);\r\n\r\n modifier minimumTreshold(uint256 betValue) {\r\n        require(betValue >= 1 ether, \"1 ETH is requires\");\r\n        _;\r\n    }\r\nfunction summery() public returns (uint collected){\r\n            uint256 toTransfer = gamblerAccount[msg.sender];\r\n            gamblerAccount[msg.sender]= 0;\r\n            msg.sender.transfer(toTransfer);\r\n            return toTransfer;\r\n    }\r\n function getMyBalance() public returns (uint userBalance){\r\n            return gamblerAccount[msg.sender];\r\n    }\r\n    function gamble(uint256 bet) public payable minimumTreshold(msg.value) returns (bool won){\r\n        bool winner = false;\r\n\r\n           require(bet == 0 || bet == 1, \"INVALIDE, please choise  0 or 1\");\r\n\r\n            if((now % 2 == 0 && bet == 0) || (now % 2 == 1 && bet == 1)) {\r\n                 gamblerAccount[msg.sender] += balance + msg.value;\r\n                balance = 0;\r\n                winner = true;\r\n\r\n            }\r\n            else{\r\n                balance += msg.value;\r\n\r\n              \r\n            }\r\n            emit placeBet(msg.sender, winner);\r\n            return winner;\r\n        }\r\n    }\r\n",
  "sourcePath": "C:/Users/ivoka/testdapp/contracts/CoinFlip.sol",
  "compiler": {
    "name": "solc",
    "version": "0.5.12+commit.7709ece9.Emscripten.clang"
  },
  "schemaVersion": "3.0.16",
  "updatedAt": "2020-06-04T13:33:49.650Z",
  "devdoc": {
    "methods": {}
  },
  "userdoc": {
    "methods": {}
  }
}